:100000000C9461000C947E000C947E000C947E0095
:100010000C947E000C947E000C947E000C947E0068
:100020000C947E000C947E000C947E000C947E0058
:100030000C947E000C947E000C947E000C947E0048
:100040000C94CB010C947E000C947E000C947E00EA
:100050000C947E000C947E000C947E000C947E0028
:100060000C947E000C947E00000000002400270009
:100070002A0000000000250028002B0000000008D6
:10008000000201000003040700000000000000005F
:1000900000000000230026002900040404040404D6
:1000A0000404020202020202030303030303010227
:1000B00004081020408001020408102001020408F6
:1000C000102011241FBECFEFD8E0DEBFCDBF11E05E
:1000D000A0E0B1E0EAE6F8E002C005900D92A83099
:1000E000B107D9F721E0A8E0B1E001C01D92A1312C
:1000F000B207E1F70E945A020C9433040C940000FA
:10010000833081F028F4813099F08230A1F0089595
:100110008730A9F08830B9F08430D1F48091800024
:100120008F7D03C0809180008F7780938000089539
:1001300084B58F7702C084B58F7D84BD089580918A
:10014000B0008F7703C08091B0008F7D8093B000A6
:1001500008951F93CF93DF93282F30E0F901E458DF
:10016000FF4F8491F901E255FF4FD491F901E65612
:10017000FF4FC491CC23C9F0162F81110E9480003B
:10018000EC2FF0E0EE0FFF1FEE58FF4FA591B4915A
:100190008FB7F894111105C09C91ED2FE095E923DC
:1001A00002C0EC91ED2BEC938FBFDF91CF911F91AB
:1001B0000895CF93DF9390E0FC01E255FF4F249127
:1001C000FC01E656FF4F8491882361F190E0880F8F
:1001D000991FFC01E859FF4FC591D491FC01EE58DD
:1001E000FF4FA591B491611109C09FB7F894888120
:1001F000209582238883EC912E230BC0623061F41A
:100200009FB7F8943881822F809583238883EC915F
:100210002E2B2C939FBF06C08FB7F894E8812E2B0E
:1002200028838FBFDF91CF9108950F931F93CF93B2
:10023000DF93EC018B0161E0101611060CF060E019
:1002400088810E94A900612F661F6627661F898129
:10025000DF91CF911F910F910C94A9001F93CF9321
:10026000DF93182F77FF03C071956195710969318C
:1002700071053CF48AE0869FE001879FD00D112430
:1002800002C0CFEFD0E061E0812F0E94D90020971B
:1002900011F460E004C0CF3FD10539F461E0812F53
:1002A000DF91CF911F910C94A900E12FF0E0E45869
:1002B000FF4FE491E330F9F048F4E130B9F0E23077
:1002C000A1F584B5806284BDC8BD34C0E730E9F0D3
:1002D000E83019F1E43049F5809180008062809324
:1002E0008000D0938B00C0938A0024C084B58068BE
:1002F00084BDC7BD1FC0809180008068809380004E
:10030000D0938900C093880015C08091B0008068A8
:100310008093B000C093B3000DC08091B0008062A4
:100320008093B000C093B40005C0C038D1050CF074
:10033000B5CFAFCFDF91CF911F9108950F931F934A
:1003400090E0FC01E255FF4F6491FC01E656FF4F3F
:10035000E491F0E0EE0FFF1FE057FF4F859194917D
:1003600000E412E42FE030E0462F0E9415026115F0
:1003700071058105910549F0DC01CB010196A11DB4
:10038000B11DBC01CD019F7003C060E070E0CB01E6
:100390001F910F9108951F920F920FB60F92112483
:1003A0002F933F938F939F93AF93BF9380910D01B2
:1003B00090910E01A0910F01B091100130910C01AC
:1003C00023E0230F2D3720F40196A11DB11D05C098
:1003D00026E8230F0296A11DB11D20930C018093E6
:1003E0000D0190930E01A0930F01B0931001809125
:1003F000080190910901A0910A01B0910B010196A9
:10040000A11DB11D8093080190930901A0930A01D9
:10041000B0930B01BF91AF919F918F913F912F911D
:100420000F900FBE0F901F901895CF92DF92EF9212
:10043000FF920F931F93E82FF92F05C00150110968
:100440002109310961F1908196239417B9F305C010
:10045000015011092109310911F19081962394135A
:10046000F7CFC12CD12CE12CF12C0AC08FEFC81A88
:10047000D80AE80AF80A0C151D052E053F0579F083
:1004800080818623841791F36C2D7D2D8E2D9F2DD9
:100490001F910F91FF90EF90DF90CF90089560E053
:1004A00070E080E090E01F910F91FF90EF90DF905F
:1004B000CF900895CF93DF93CDB7DEB72A970FB6CD
:1004C000F894DEBF0FBECDBF789484B5826084BD42
:1004D00084B5816084BD85B5826085BD85B5816048
:1004E00085BD80916E00816080936E0010928100C6
:1004F0008091810082608093810080918100816081
:100500008093810080918000816080938000809141
:10051000B10084608093B1008091B00081608093CD
:10052000B00080917A00846080937A0080917A0094
:10053000826080937A0080917A00816080937A0053
:1005400080917A00806880937A001092C10060E008
:100550008EE00E94D90060E08FE00E94D90060E048
:1005600080E10E94D90060E081E10E94D90061E051
:1005700083E00E94D90061E089E00E94D90061E037
:100580008AE00E94D90061E0809106010E94D900B2
:1005900061E0809107010E94D90061E0809104012F
:1005A0000E94D90061E0809105010E94D90061E0BC
:1005B000809102010E94D90061E0809103010E94B4
:1005C000D90061E0809100010E94D90061E0809132
:1005D00001010E94D9009DE9292E90E0392E2FECCF
:1005E000C22E23E0D22EE12CF12C00E010E0EFE748
:1005F000F0E08491E1EBF0E0A490F101B490BB2035
:10060000A1F081110E948000EB2DF0E0EE0FFF1FA2
:10061000E057FF4FA591B4918C91A82291E080E022
:1006200009F490E0692F782F02C060E070E0F1E0FB
:100630006F2783E00E94A9008EE00E949E019B012B
:10064000AC01235E334041095109A2E3B0E00E94AE
:10065000F703A70196010E94D80349015A0189E1D5
:10066000881A9108A108B1089A8689868FE00E94AD
:100670009E0169837A838B839C8380E10E949E0123
:100680006D837E838F83988781E10E949E019B0109
:10069000AC01235E334041095109A2E3B0E00E945E
:1006A000F703A70196010E94D80329013A01E9E165
:1006B0004E1A510861087108C20157FE04C088270C
:1006C0009927841995090F974CF0B20189E00E948F
:1006D0002E0166277727641975091CC029813A8184
:1006E0004B815C81235E334041095109A2E3B0E0B4
:1006F0000E94F703A70196010E94D80329013A013D
:10070000F9E14F1A510861087108B20189E00E94AD
:100710002E01B20186E091E00E941501B20184E051
:1007200091E00E941501C40129853A8537FF04C074
:1007300088279927881999090F9774F0B4018AE0DE
:100740000E942E01B40182E091E00E94150166270B
:1007500077276819790921C02D813E814F815885FD
:10076000235E334041095109A2E3B0E00E94F70340
:10077000A70196010E94D80349015A0189E1881A0C
:100780009108A108B108B4018AE00E942E01B401C9
:1007900082E091E00E941501B40180E091E00E94A6
:1007A00015010115110509F422CF0E9400001FCF89
:1007B000052E97FB1EF400940E94EF0357FD07D00F
:1007C0000E94020407FC03D04EF40C94EF035095F2
:1007D0004095309521953F4F4F4F5F4F089590952D
:1007E0008095709561957F4F8F4F9F4F08950E9420
:1007F0002404A59F900DB49F900DA49F800D911D82
:1008000011240895A1E21A2EAA1BBB1BFD010DC0E5
:10081000AA1FBB1FEE1FFF1FA217B307E407F507B0
:1008200020F0A21BB30BE40BF50B661F771F881F8C
:10083000991F1A9469F760957095809590959B0122
:10084000AC01BD01CF010895A29FB001B39FC001CB
:10085000A39F700D811D1124911DB29F700D811DEC
:0A0860001124911D0895F894FFCFB4
:08086A000C0B0D040807060544
:00000001FF
