:100000000C9462000C948A000C948A000C948A0070
:100010000C948A000C948A000C948A000C948A0038
:100020000C948A000C948A000C948A000C948A0028
:100030000C948A000C948A000C948A000C948A0018
:100040000C943D030C948A000C94AD030C9487032C
:100050000C948A000C948A000C948A000C948A00F8
:100060000C948A000C948A000000000024002700F1
:100070002A0000000000250028002B0000000008D6
:10008000000201000003040700000000000000005F
:1000900000000000230026002900040404040404D6
:1000A0000404020202020202030303030303010227
:1000B00004081020408001020408102001020408F6
:1000C0001020D90511241FBECFEFD8E0DEBFCDBF71
:1000D00011E0A0E0B1E0ECEDFCE002C005900D9273
:1000E000AA31B107D9F721E0AAE1B1E001C01D9220
:1000F000A03CB207E1F710E0C2E6D0E004C02197CF
:10010000FE010E946106C136D107C9F70E9424048E
:100110000C946C060C940000CF92DF92EF92FF9249
:100120000F931F93CF93DF936C017A018B01C0E093
:10013000D0E0CE15DF0589F0D8016D918D01D60193
:10014000ED91FC910190F081E02DC6010995892B7C
:1001500011F47E0102C02196ECCFC701DF91CF914F
:100160001F910F91FF90EF90DF90CF900895089529
:1001700080E090E00895FC01538D448D252F30E000
:10018000842F90E0821B930B541710F0CF960895A4
:1001900001970895FC01918D828D981761F0828DF1
:1001A000DF01A80FB11D5D968C91928D9F5F9F73AB
:1001B000928F90E008958FEF9FEF0895FC01918D4D
:1001C000828D981731F0828DE80FF11D858D90E0BA
:1001D00008958FEF9FEF0895FC01918D228D892F57
:1001E00090E0805C9F4F821B91098F73992708953F
:1001F00083E291E00E94EC0021E0892B09F420E0E9
:10020000822F0895FC01848DDF01A80FB11DA35A30
:10021000BF4F2C91848D90E001968F739927848F26
:10022000A689B7892C93A089B1898C9180648C931D
:10023000938D848D981306C00288F389E02D808108
:100240008F7D80830895EF92FF920F931F93CF933A
:10025000DF93EC0181E0888F9B8D8C8D981305C016
:10026000E889F989808185FD24C0F62E0B8D10E088
:100270000F5F1F4F0F731127E02E8C8DE8120CC0FB
:100280000FB607FCFACFE889F989808185FFF5CFA1
:10029000CE010E940201F1CF8B8DFE01E80FF11D0E
:1002A000E35AFF4FF0820B8FEA89FB8980818062DD
:1002B00007C0EE89FF896083E889F98980818064BD
:1002C000808381E090E0DF91CF911F910F91FF90AB
:1002D000EF900895CF93DF93EC01888D8823C9F0C8
:1002E000EA89FB89808185FD05C0A889B9898C913F
:1002F00086FD0FC00FB607FCF5CF808185FFF2CFDA
:10030000A889B9898C9185FFEDCFCE010E940201A9
:10031000E7CFDF91CF91089580E090E0892B29F01D
:100320000E94F80081110C9400000895833081F040
:1003300028F4813099F08230A1F008958730A9F037
:100340008830B9F08430D1F4809180008F7D03C073
:10035000809180008F7780938000089584B58F7797
:1003600002C084B58F7D84BD08958091B0008F77E1
:1003700003C08091B0008F7D8093B00008951F93DB
:10038000CF93DF93282F30E0F901E458FF4F849199
:10039000F901E255FF4FD491F901E656FF4FC491A0
:1003A000CC23C9F0162F81110E949601EC2FF0E0AA
:1003B000EE0FFF1FEE58FF4FA591B4918FB7F89441
:1003C000111105C09C91ED2FE095E92302C0EC913D
:1003D000ED2BEC938FBFDF91CF911F910895CF93B9
:1003E000DF9390E0FC01E255FF4F2491FC01E656BB
:1003F000FF4F8491882361F190E0880F991FFC01E1
:10040000E859FF4FC591D491FC01EE58FF4FA591DB
:10041000B491611109C09FB7F89488812095822317
:100420008883EC912E230BC0623061F49FB7F8945F
:100430003881822F809583238883EC912E2B2C93F7
:100440009FBF06C08FB7F894E8812E2B28838FBFFB
:10045000DF91CF9108951F93CF93DF93182FEB0176
:1004600061E00E94EF01209711F460E004C0CF3FEB
:10047000D10539F461E0812FDF91CF911F910C9468
:10048000BF01E12FF0E0E458FF4FE491E330F9F0D1
:1004900048F4E130B9F0E230A1F584B5806284BD62
:1004A000C8BD34C0E730E9F0E83019F1E43049F56F
:1004B00080918000806280938000D0938B00C093F5
:1004C0008A0024C084B5806884BDC7BD1FC08091E8
:1004D0008000806880938000D0938900C09388005A
:1004E00015C08091B00080688093B000C093B300C5
:1004F0000DC08091B00080628093B000C093B400C2
:1005000005C0C038D1050CF0B5CFAFCFDF91CF918A
:100510001F910895009769F0FC0101900020E9F710
:100520003197AF01481B590BBC0183E291E00C9459
:100530008C0080E090E008958F929F92AF92BF92DE
:100540000F931F93CF93DF93CDB7DEB7A1970FB66D
:10055000F894DEBF0FBECDBF19A2423008F44AE0C6
:100560008E010F5D1F4F842E912CA12CB12CA50163
:1005700094010E943006E62FB901CA010150110909
:10058000EA3014F4E05D01C0E95CD801EC93232B60
:10059000242B252B61F7C8010E948A02A1960FB671
:1005A000F894DEBF0FBECDBFDF91CF911F910F91A9
:1005B000BF90AF909F908F900895CF92DF92EF926F
:1005C000FF92CF93DF936B017C01E0912301F091C7
:1005D00024010190F081E02D6DE283E291E0099524
:1005E000EC0166277727CB016C197D098E099F09DD
:1005F0004AE00E949C028C0F9D1FDF91CF91FF90DB
:10060000EF90DF90CF900895BC01990F880B990B64
:1006100097FD0C94DD024AE00C949C020F931F930B
:1006200090E0FC01E255FF4F6491FC01E656FF4F5C
:10063000E491F0E0EE0FFF1FE057FF4F859194919A
:1006400000E412E42FE030E0462F0E94DF03611542
:1006500071058105910549F0DC01CB010196A11DD1
:10066000B11DBC01CD019F7003C060E070E0CB0103
:100670001F910F9108950E9467061F920F920FB667
:100680000F9211242F933F938F939F93AF93BF9318
:1006900080911F0190912001A0912101B091220130
:1006A00030911E0123E0230F2D3720F40196A11D68
:1006B000B11D05C026E8230F0296A11DB11D209390
:1006C0001E0180931F0190932001A0932101B093FC
:1006D000220180911A0190911B01A0911C01B091FF
:1006E0001D010196A11DB11D80931A0190931B015C
:1006F000A0931C01B0931D01BF91AF919F918F9169
:100700003F912F910F900FBE0F901F9018951F9241
:100710000F920FB60F9211242F933F934F935F9335
:100720006F937F938F939F93AF93BF93EF93FF93B9
:1007300083E291E00E940201FF91EF91BF91AF919E
:100740009F918F917F916F915F914F913F912F91E9
:100750000F900FBE0F901F9018951F920F920FB61B
:100760000F9211242F938F939F93EF93FF93E09118
:100770003301F09134018081E0913901F0913A0127
:1007800082FD12C0908180913C018F5F8F73209118
:100790003D01821751F0E0913C01F0E0ED5DFE4F2C
:1007A000958F80933C0101C08081FF91EF919F91D3
:1007B0008F912F910F900FBE0F901F901895CF9291
:1007C000DF92EF92FF920F931F93E82FF92F05C04E
:1007D000015011092109310961F190819623941783
:1007E000B9F305C0015011092109310911F19081B6
:1007F00096239413F7CFC12CD12CE12CF12C0AC0F5
:100800008FEFC81AD80AE80AF80A0C151D052E053C
:100810003F0579F080818623841791F36C2D7D2D1F
:100820008E2D9F2D1F910F91FF90EF90DF90CF9015
:10083000089560E070E080E090E01F910F91FF90DC
:10084000EF90DF90CF900895CF93DF93CDB7DEB7D1
:100850002A970FB6F894DEBF0FBECDBF789484B54B
:10086000826084BD84B5816084BD85B5826085BDAC
:1008700085B5816085BD80916E00816080936E003A
:10088000109281008091810082608093810080912C
:1008900081008160809381008091800081608093DD
:1008A00080008091B10084608093B1008091B0009D
:1008B00081608093B00080917A00846080937A0098
:1008C00080917A00826080937A0080917A008160C2
:1008D00080937A0080917A00806880937A001092E9
:1008E000C10060E08EE00E94EF0160E08FE00E94B6
:1008F000EF0160E080E10E94EF0160E081E10E9491
:10090000EF0161E088E00E94EF0161E089E00E9470
:10091000EF0161E08AE00E94EF0161E086E00E9461
:10092000EF0161E088E00E94EF0161E08DE00E944C
:10093000EF0161E08CE00E94EF01E0913301F09162
:10094000340182E08083E0912F01F0913001108228
:10095000E0913101F091320180E1808310923B01FE
:10096000E0913701F091380186E08083E091350114
:10097000F0913601808180618083E0913501F091B2
:100980003601808188608083E0913501F0913601E5
:10099000808180688083E0913501F091360180810B
:1009A0008F7D80839FEC492E93E0592E612C712C12
:1009B0001AE0E4E8F0E08491E6EBF0E0F490E2EA9B
:1009C000F0E004910023A1F081110E949601E02F34
:1009D000F0E0EE0FFF1FE057FF4FA591B4918C910F
:1009E000F82291E080E009F490E0692F782F02C0AE
:1009F00060E070E0F1E06F2788E00E94BF018EE0C8
:100A00000E940E039B01AC01235E33404109510952
:100A1000A2E3B0E00E942506A30192010E9406060F
:100A2000DA01C9014997A109B10989839A83AB8386
:100A3000BC838FE00E940E039B01AC01235E334018
:100A400041095109A2E3B0E00E942506A3019201E9
:100A50000E94060649015A0199E1891A9108A108E4
:100A6000B108140180E10E940E039B01AC01235EDA
:100A7000334041095109A2E3B0E00E942506A301D9
:100A800092010E94060669017A01A9E1CA1AD108F9
:100A9000E108F108DA86C98681E10E940E039B0114
:100AA000AC01235E334041095109A2E3B0E00E944A
:100AB0002506A30192010E940606DA01C9014997A1
:100AC000A109B1098D839E83AF83B887C601A9852B
:100AD000BA85B7FF04C0882799278C199D098931E9
:100AE000910534F4189FB001199F700D112402C0B4
:100AF0006FEF70E089E00E942B0201E0E985FA8542
:100B00001E161F060CF000E0602F86E00E94BF0159
:100B1000602F88E00E94BF01C40137FE04C088270F
:100B20009927881999098931910534F4189FB001E2
:100B3000199F700D112402C06FEF70E08AE00E94CF
:100B40002B0201E0121413040CF000E0602F8DE082
:100B50000E94BF01602F8CE00E94BF0189819A81B1
:100B60000E94040382E191E00E948A02C4010E9473
:100B7000040382E191E00E948A02C6010E940403FC
:100B800082E191E00E948A022D813E81B901330FFA
:100B9000880B990B97FF03C00E94DD0203C04AE057
:100BA0000E949C0286E191E00E948A020E948C01D0
:100BB00000CFE3E2F1E01382128288EE93E0A0E03E
:100BC000B0E084839583A683B78384E091E091832A
:100BD000808385EC90E09587848784EC90E097870C
:100BE000868780EC90E0918B808B81EC90E0938BFA
:100BF000828B82EC90E0958B848B86EC90E0978BD7
:100C0000868B118E128E138E148E0895052E97FBEF
:100C10001EF400940E941D0657FD07D00E94300666
:100C200007FC03D04EF40C941D065095409530956A
:100C300021953F4F4F4F5F4F089590958095709548
:100C400061957F4F8F4F9F4F08950E945206A59F39
:100C5000900DB49F900DA49F800D911D11240895B7
:100C6000A1E21A2EAA1BBB1BFD010DC0AA1FBB1FB0
:100C7000EE1FFF1FA217B307E407F50720F0A21B22
:100C8000B30BE40BF50B661F771F881F991F1A948F
:100C900069F760957095809590959B01AC01BD01B9
:100CA000CF010895A29FB001B39FC001A39F700D13
:100CB000811D1124911DB29F700D811D1124911D64
:100CC0000895EE0FFF1F0590F491E02D099481E047
:0C0CD00090E0F8940C946C06F894FFCFB0
:100CDC000000000023018C00BB006A01EC00CA007C
:0A0CEC00DE00202C20000D0A00009D
:00000001FF
